:100000000C942A000C943C000C943C000C943C0092
:100010000C943C000C943C000C943C000C943C0070
:100020000C943C000C943C000C943C000C943C0060
:100030000C943C000C943C000C943C000C943C0050
:100040000C943C000C943C000C943C000C943C0040
:100050000C943C0011241FBECFE5D4E0DEBFCDBF21
:1000600020E0A0E6B0E001C01D92A636B207E1F79D
:100070000E9401040C9426040C9400008FEF88BBAE
:100080002FEF80E792E0215080409040E1F700C0E0
:1000900000002FEF80E792E0215080409040E1F790
:1000A00000C000002FEF80E792E021508040904098
:1000B000E1F700C000002FEF80E792E02150804080
:1000C0009040E1F700C000002FEF80E792E0215060
:1000D00080409040E1F700C000002FEF80E792E001
:1000E000215080409040E1F700C000002FEF80E7F2
:1000F00092E0215080409040E1F700C000002FEFD7
:1001000080E792E0215080409040E1F700C000007D
:100110002FEF80E792E0215080409040E1F700C04F
:1001200000002FEF80E792E0215080409040E1F7FF
:1001300000C000002FEF80E792E021508040904007
:10014000E1F700C000002FEF80E792E021508040EF
:100150009040E1F700C000002FEF80E792E02150CF
:1001600080409040E1F700C000002FEF80E792E070
:10017000215080409040E1F700C000002FEF80E761
:1001800092E0215080409040E1F700C000002FEF46
:1001900080E792E0215080409040E1F700C00000ED
:1001A0002FEF80E792E0215080409040E1F700C0BF
:1001B00000002FEF80E792E0215080409040E1F76F
:1001C00000C000002FEF80E792E021508040904077
:1001D000E1F700C000002FEF80E792E0215080405F
:1001E0009040E1F700C000002FEF80E792E021503F
:1001F00080409040E1F700C000002FEF80E792E0E0
:10020000215080409040E1F700C000002FEF80E7D0
:1002100092E0215080409040E1F700C000002FEFB5
:1002200080E792E0215080409040E1F700C000005C
:100230002FEF80E792E0215080409040E1F700C02E
:1002400000002FEF80E792E0215080409040E1F7DE
:1002500000C000002FEF80E792E0215080409040E6
:10026000E1F700C000002FEF80E792E021508040CE
:100270009040E1F700C000002FEF80E792E02150AE
:1002800080409040E1F700C000002FEF80E792E04F
:10029000215080409040E1F700C000002FEF80E740
:1002A00092E0215080409040E1F700C000002FEF25
:1002B00080E792E0215080409040E1F700C00000CC
:1002C0002FEF80E792E0215080409040E1F700C09E
:1002D00000002FEF80E792E0215080409040E1F74E
:1002E00000C000002FEF80E792E021508040904056
:1002F000E1F700C000002FEF80E792E0215080403E
:100300009040E1F700C000002FEF80E792E021501D
:1003100080409040E1F700C000002FEF80E792E0BE
:10032000215080409040E1F700C000002FEF80E7AF
:1003300092E0215080409040E1F700C000002FEF94
:1003400080E792E0215080409040E1F700C000003B
:1003500018BA2FEF80E792E0215080409040E1F7FB
:1003600000C000002FEF80E792E0215080409040D5
:10037000E1F700C000002FEF80E792E021508040BD
:100380009040E1F700C000002FEF80E792E021509D
:1003900080409040E1F700C000002FEF80E792E03E
:1003A000215080409040E1F700C0000008958FEF99
:1003B00088BB2FEF30E792E0215030409040E1F7CA
:1003C00000C000002FEF30E792E021503040904015
:1003D000E1F700C000002FEF30E792E021503040FD
:1003E0009040E1F700C000002FEF30E792E021508D
:1003F00030409040E1F700C000002FEF30E792E07E
:10040000215030409040E1F700C0000018BA2FEFB3
:1004100030E792E0215030409040E1F700C000000A
:100420002FEF30E792E0215030409040E1F700C0DC
:1004300000002FEF30E792E0215030409040E1F78C
:1004400000C000002FEF30E792E021503040904094
:10045000E1F700C000002FEF30E792E0215030407C
:100460009040E1F700C0000088BB2FEF30E792E03A
:10047000215030409040E1F700C000002FEF30E7FE
:1004800092E0215030409040E1F700C000002FEF93
:1004900030E792E0215030409040E1F700C000008A
:1004A0002FEF30E792E0215030409040E1F700C05C
:1004B00000002FEF30E792E0215030409040E1F70C
:1004C00000C0000018BA2FEF30E792E02150304012
:1004D0009040E1F700C000002FEF30E792E021509C
:1004E00030409040E1F700C000002FEF30E792E08D
:1004F000215030409040E1F700C000002FEF30E77E
:1005000092E0215030409040E1F700C000002FEF12
:1005100030E792E0215030409040E1F700C0000009
:1005200088BB2FEF30E792E0215030409040E1F758
:1005300000C000002FEF30E792E0215030409040A3
:10054000E1F700C000002FEF30E792E0215030408B
:100550009040E1F700C000002FEF30E792E021501B
:1005600030409040E1F700C000002FEF30E792E00C
:10057000215030409040E1F700C0000018BA2FEF42
:1005800030E792E0215030409040E1F700C0000099
:100590002FEF30E792E0215030409040E1F700C06B
:1005A00000002FEF30E792E0215030409040E1F71B
:1005B00000C000002FEF30E792E021503040904023
:1005C000E1F700C000002FEF30E792E0215030400B
:1005D0009040E1F700C0000088BB2FEF30E782E0D9
:1005E000215030408040E1F700C000009FEF20E73D
:1005F00032E0915020403040E1F700C000008FEF22
:1006000090E722E0815090402040E1F700C00000D8
:100610003FEF80E792E0315080409040E1F700C02A
:1006200000002FEF30E782E0215030408040E1F7BA
:1006300000C0000018BA9FEF20E732E09150204040
:100640003040E1F700C000008FEF90E722E08150DA
:1006500090402040E1F700C000003FEF80E792E0CB
:10066000315080409040E1F700C000002FEF30E7AC
:1006700082E0215030408040E1F700C000009FEF51
:1006800020E732E0915020403040E1F700C0000008
:10069000089528E030E002C0220F331F8A95E2F768
:1006A00025BB87EE93E00197F1F700C0000083B30C
:1006B0008F70089590E1899F9001112482958F7029
:1006C000822B0895CF93DF9381E090E00E9449034D
:1006D0000E945A03C0E6D0E0898382E090E00E9445
:1006E00049039981890F898383E090E00E9449033F
:1006F0000E945A03888384E090E00E944903988115
:10070000890F888315BADF91CF9108950F931F93B6
:10071000CF93DF930E946203C0E6D0E00881198185
:100720008FE094EA0197F1F700C000000E94620395
:100730008881902F982329812123E2E6F0E08081AF
:10074000318190832183809589238883932F90958D
:1007500029232983811105C0222331F081E090E013
:1007600005C081E090E002C080E090E0DF91CF9191
:100770001F910F9108958091600080FD22C081FD3E
:1007800022C082FD22C083FD22C084FD22C085FDDF
:1007900022C086FD22C0882314F18091610080FD73
:1007A00020C081FD20C082FD20C083FD20C084FDCB
:1007B00020C085FD20C086FD20C0882304F581E48B
:1007C00008958AE2089580E3089583E2089584E419
:1007D000089587E3089588E3089589E3089583E4FD
:1007E000089584E3089585E3089586E3089582E4F7
:1007F000089581E3089582E3089583E3089580E0F6
:1008000008958FEF87BB80EF84BBE2E6F0E01082B3
:10081000118218BA0E948603892BE1F30E94BB0360
:10082000809365000E948603892BE1F30E94BB033D
:100830008093640090916500913329F4823319F418
:100840000E943E00E2CF0E94D701DFCFF894FFCF95
:00000001FF
