:020000020000FC
:1000000000C033278FE58DBF94E09EBF8FEF87BB85
:1000100081BB80EF84BB80EF87D04427482B492BDE
:100020004030C9F3903119F4803009F401C051E037
:1000300080EF7AD04427482B492B4030C9F3513008
:1000400009F19032F9F48030E9F4F6D087E5E0D098
:1000500085E4DED08CE4DCD083E4DAD08FE4D8D041
:100060008DE4D6D085E4D4D080E2D2D081E3D0D064
:1000700082E3CED02FEF28BB80EA9FE02AD044272E
:1000800048BBC9CF54E0D8D081E4C2D08CE4C0D002
:1000900081E4BED082E5BCD08DE4BAD080E2B8D095
:1000A0008FE4B6D08EE4B4D02FEF28BB84EF91E07C
:1000B00010D0442748BB84EF91E00BD05A955030C4
:1000C00099F7A9CF01970000000000000000D1F7C8
:1000D00008958F939F9386EE93E0F4DF9F918F9125
:1000E0000197B9F7089595BB8F939F9384EF91E0A3
:1000F000E9DF9F918F910000000083B38F70089516
:10010000AF93BF9390E1EFDF8295B82F90E2EBDFE2
:10011000B80F90E4E8DF8295A82F90E8E4DFA80FFD
:10012000CD01BF91AF9108956F937F93AF93BF932C
:10013000E7DF8F939F938FE090E0CBDFE1DF7F914C
:100140006F9186239723A0E6B0E07D916C918C930C
:100150009E937095609586239723BF91AF917F9171
:100160006F910895AF93BF93DC018AE2A0FD2FC089
:1001700080E3A1FD2CC083E2A2FD29C084E4A3FD9D
:1001800026C087E3A4FD23C088E3A5FD20C089E342
:10019000A6FD1DC083E4A7FD1AC084E3B0FD17C00F
:1001A00085E3B1FD14C086E3B2FD11C082E4B3FD66
:1001B0000EC081E3B4FD0BC082E3B5FD08C083E34C
:1001C000B6FD05C081E4B7FD02C0882700C0BF911D
:1001D000AF9108958F939F9380E797E173DF9F918D
:1001E0008F918F9390B39F70807F890F82BB939A7A
:1001F00093988F939F9380E797E164DF9F918F910E
:100200008F918295807F890F82BB939A93980895EE
:100210008F939F93929ADEDF8BE290E053DF9F9162
:100220008F9108958F939F939298D4DF87E290E007
:1002300049DF9F918F9108958F939F9388E290E07B
:1002400048DF80E382BB939A939887E290E03ADF9D
:100250008F939F9388EE93E035DF9F918F9180E39A
:1002600082BB939A939887E290E02CDF8F939F93C1
:1002700088EE93E027DF9F918F9180E282BB939A73
:10028000939887E290E01EDF8F939F9388EE93E030
:1002900019DF9F918F9188E2C5DF8CE0C3DF81E099
:1002A000C1DF8AEF95E00EDF86E0BCDF9F918F9182
:0202B0000895AF
:00000001FF
