:020000020000FC
:040000000C941D003F
:020020006DC1B0
:100038006BC18FE58DBF94E09EBF882700271127ED
:1000480022278FEF87BB81BB882780EF84BB4DD1E8
:1000580084E089BF85E08EBD8CEF8DBD83EF8CBDBC
:10006800789480EF7DD04427482B492B4030C9F342
:10007800903119F4803009F401C051E080EF70D05C
:100088004427482B492B4030C9F3513041F1903275
:1000980031F5803021F521E0EBD087E5D5D085E436
:1000A800D3D08CE4D1D083E4CFD08FE4CDD08DE40D
:1000B800CBD085E4C9D080E2C7D081E3C5D082E344
:1000C800C3D0106818BB80EA9FE01FD01F7718BB09
:1000D80081E0C4D08AEF95E011D020E0C2CF54E08F
:1000E800106818BB84EF91E010D01F7718BB84EF1D
:1000F80091E00BD05A95503099F7B3CF0197000093
:10010800000000000000D1F708958F939F9386EEBA
:1001180093E0F4DF9F918F910197B9F7089595BB0C
:100128008F939F9384EF91E0E9DF9F918F91000077
:10013800000083B38F700895AF93BF9390E1EFDF12
:100148008295B82F90E2EBDFB80F90E4E8DF829554
:10015800A82F90E8E4DFA80FCD01BF91AF910895D3
:100168006F937F93AF93BF93E7DF8F939F938FE056
:1001780090E0CBDFE1DF7F916F9186239723A0E6A4
:10018800B0E07D916C918C939E93709560958623D9
:100198009723BF91AF917F916F910895AF93BF93CC
:1001A800DC018AE2A0FD2FC080E3A1FD2CC083E220
:1001B800A2FD29C084E4A3FD26C087E3A4FD23C0D3
:1001C80088E3A5FD20C089E3A6FD1DC083E4A7FD43
:1001D8001AC084E3B0FD17C085E3B1FD14C086E3FF
:1001E800B2FD11C082E4B3FD0EC081E3B4FD0BC0C3
:1001F80082E3B5FD08C083E3B6FD05C081E4B7FD21
:1002080002C0882700C0BF91AF9108958F939F9334
:1002180080E797E173DF9F918F918F9390B39F70E1
:10022800807F890F82BB939A93988F939F9380E7DF
:1002380097E164DF9F918F918F918295807F890FDD
:1002480082BB939A939808958F939F93929ADEDF37
:100258008BE290E053DF9F918F9108958F939F9346
:100268009298D4DF87E290E049DF9F918F910895BB
:100278008F939F9388E290E048DF80E382BB939A54
:10028800939887E290E03ADF8F939F9388EE93E00C
:1002980035DF9F918F9180E382BB939A939887E291
:1002A80090E02CDF8F939F9388EE93E027DF9F9158
:1002B8008F9180E282BB939A939887E290E01EDF49
:1002C8008F939F9388EE93E019DF9F918F9188E237
:1002D800C5DF8CE0C3DF81E0C1DF8AEF95E00EDF88
:1002E80086E0BCDF9F918F91089580E487B98FE8FD
:1002F80086B908958F9386B1806486B98CEF8DBDD9
:1003080083EF8CBD8F9118958F939F93AF93AA27F6
:1003180084B195B193709230C0F49130A0F4803DCF
:1003280080F4803960F4863740F4853420F48831CD
:1003380000F4A1E00CC0A3E00AC0A7E008C0AFE049
:1003480006C0AFE104C0AFE302C0AFE700C0107859
:100358001A2B18BB20FD0C94E901AF3140F1013094
:10036800F1F0033009F101E083DF87E46DDF81E418
:100378006BDF83E569DF80E267DF84E465DF85E4BE
:1003880063DF84E561DF85E45FDF83E45DDF84E5C7
:100398005BDF85E459DF84E457DF0C94E9010260F0
:1003A800107818BB0C94E9010D7F0C94E90100301A
:1003B80061F000E05DDF83E447DF8CE445DF85E43E
:1003C80043DF81E441DF82E53FDFAF919F918F9169
:0203D800189576
:00000001FF
